S01800004763634170706C69636174696F6E31312E7372656329
S11300000C942A000C9447000C9447000C9447006D
S11300100C9447000C9447000C9447000C94470040
S11300200C9447000C9447000C9447000C94470030
S11300300C9447000C9447000C9447000C94470020
S11300400C9447000C9447000C9447000C94470010
S11300500C94470011241FBECFE5D8E0DEBFCDBF0E
S113006011E0A0E6B0E0E4E7F8E002C005900D92EC
S1130070AA34B107D9F721E0AAE4B1E001C01D9286
S1130080AE34B207E1F70E9493010C9438040C9447
S1130090000095E092BB8BBB89EF90E00197F1F7EC
S11300A000C0000081E082BB89EF90E00197F1F786
S11300B000C00000089594E092BB8BBB89EF90E0F0
S11300C00197F1F700C0000012BA89EF90E00197A0
S11300D0F1F700C00000089588E30E945B0081E00E
S11300E00E945B0086E00E945B008EE00E945B0041
S11300F00895CF93DF93EC018881882331F0219612
S11301000E94490089918111FBCFDF91CF9108951D
S1130110462F50E060E670E00E94F80380E690E02D
S11301200E947900089584B38F6084BB84B38F7870
S113013084BB08950E949300A89A00C09C9B12C09F
S1130140EAE4F1E081E090E091838083828193810D
S113015001969383828383E294EF0197F1F700C0C1
S1130160000027C09D9B12C0EAE4F1E082E090E029
S1130170918380838281938101969383828383E236
S113018094EF0197F1F700C0000013C09E9B11C0CB
S1130190EAE4F1E083E090E09183808382819381BB
S11301A001969383828383E294EF0197F1F700C071
S11301B00000A898A99A00C09C9B12C0EAE4F1E050
S11301C084E090E09183808382819381019693837C
S11301D0828383E294EF0197F1F700C0000027C007
S11301E09D9B12C0EAE4F1E085E090E09183808376
S11301F08281938101969383828383E294EF0197B2
S1130200F1F700C0000013C09E9B11C0EAE4F1E0C6
S113021086E090E091838083828193810196938329
S1130220828383E294EF0197F1F700C00000A9985C
S1130230AA9A00C09C9B12C0EAE4F1E087E090E037
S1130240918380838281938101969383828383E265
S113025094EF0197F1F700C0000027C09D9B12C0E6
S1130260EAE4F1E088E090E09183808382819381E5
S113027001969383828383E294EF0197F1F700C0A0
S1130280000013C09E9B11C0EAE4F1E089E090E015
S1130290918380838281938101969383828383E215
S11302A094EF0197F1F700C00000AA98AB9A00C040
S11302B09C9B12C0EAE4F1E08AE090E091838083A1
S11302C08281938101969383828383E294EF0197E1
S11302D0F1F700C0000025C09D9B10C0EAE4F1E0E6
S11302E0118210828281938101969383828383E2B7
S11302F094EF0197F1F700C0000013C09E9B11C05A
S1130300EAE4F1E08BE090E0918380838281938141
S113031001969383828383E294EF0197F1F700C0FF
S11303200000AB98089580E884BF84BFEAE4F1E05C
S113033013821282118210828FE087BB8FEF8ABBF7
S113034081BB0E946C000E94930086E690E00E94AC
S1130350790081EC0E945B0083E790E00E947900C1
S11303602FE936E841E0215030404040E1F700C039
S113037000008FE996E821E0815090402040E1F7A9
S113038000C000003FE946E881E031504040804031
S1130390E1F700C000009FE926E831E091502040D9
S11303A03040E1F700C0000081E00E945B008BE771
S11303B090E00E947900CAE4D1E01B821A820E9474
S11303C09A008A819B8118161906BCF781EC0E9459
S11303D05B008FE890E00E9479004FE986E891E0A5
S11303E0415080409040E1F700C0000081EC0E9441
S11303F05B0088819981019771F581E00E945B001F
S113040081E990E00E9479002FE936E841E021502B
S113041030404040E1F700C000008FE996E821E059
S1130420815090402040E1F700C0000081E00E942C
S11304305B008DE990E00E947900CAE4D1E011E00C
S11304406894EE24E3F86894FF24F2F802E0D12ED5
S1130450B12CC12C33C081E00E945B008DEA90E096
S11304600E9479003FE946E881E0315040408040F5
S1130470E1F700C000009FE926E831E091502040F8
S11304803040E1F700C000004FE986E891E04150B8
S113049080409040E1F700C000002FE936E841E0D9
S11304A0215030404040E1F700C0000081E00E944C
S11304B05B0087EB90E00E9479007FCF80EC0E9484
S11304C05B000E949A002A813B8112161306B4F73E
S11304D01B821A82888199818230910509F05DC05E
S11304E084EC90E00E947900198218821B821A829F
S11304F089ED90E00E9479000E949A002A813B8154
S113050012161306CCF76AE0888199810E9488004C
S11305108881998118161906ECF42B2D3C2D18BBF3
S11305208FE996E841E0815090404040E1F700C0F7
S1130530000018BA8FE996E841E0815090404040AD
S1130540E1F700C000002F5F3F4F48815981241715
S113055035072CF38D2D0E945B0086EE90E00E94FF
S113056079008FE996E821E0815090402040E1F73E
S113057000C000003FE946E881E03150404080403F
S1130580E1F700C000008D2D0E945B008DE990E032
S11305900E94790019821882C0C0049709F05CC0D7
S11305A087EF90E00E947900198218821B821A82D8
S11305B089ED90E00E9479000E949A008A819B81D3
S11305C018161906CCF76AE0888199810E94880080
S11305D08881998118161906E4F48B2D9C2D08BB8B
S11305E02FE936E841E0215030404040E1F700C0B7
S11305F0000018BA2FE936E841E02150304040406D
S1130600E1F700C000000196288139818217930721
S113061034F38D2D0E945B0086EE90E00E947900F9
S11306208FE996E821E0815090402040E1F700C036
S113063000003FE946E881E0315040408040E1F766
S113064000C000008D2D0E945B008DE990E00E94A7
S1130650790019821882C2C088819981069709F0AD
S11306605CC08CE091E00E947900198218821B82A0
S11306701A8289ED90E00E9479000E949A008A8192
S11306809B8118161906CCF76AE0888199810E942B
S113069088008881998118161906E4F48B2D9C2D05
S11306A0F8BA2FE936E841E0215030404040E1F704
S11306B000C0000018BA2FE936E841E0215030406C
S11306C04040E1F700C0000001962881398182177B
S11306D0930734F38D2D0E945B0086EE90E00E9418
S11306E079008FE996E821E0815090402040E1F7BD
S11306F000C000003FE946E881E0315040408040BE
S1130700E1F700C000008D2D0E945B008DE990E0B0
S11307100E94790019821882D1CE88819981089724
S113072009F05CC081E291E00E947900198218828C
S11307301B821A8289ED90E00E9479000E949A003F
S11307408A819B8118161906CCF76AE08881998101
S11307500E9488008881998118161906E4F48B2D6B
S11307609C2DE8BA2FE936E841E021503040404062
S1130770E1F700C0000018BA2FE936E841E0215043
S113078030404040E1F700C00000019628813981E3
S11307908217930734F38D2D0E945B0086EE90E060
S11307A00E9479008FE996E821E081509040204032
S11307B0E1F700C000003FE946E881E031504040E5
S11307C08040E1F700C000008D2D0E945B008DE9A0
S11307D090E00E9479001982188270CE88819981F4
S11307E0059709F06BCE86E391E00E94790066CE0E
S11307F04532510520F4423010F00C940304FB01FF
S11308001082CB010895BB274A3031F4992322F496
S1130810BDE2909581959F4F0C940F04BB27FB017B
S11308205527AA27880F991FAA1FA41710F0A41BE5
S113083083955051B9F7A05DAA3308F0A95DA1933F
S1130840009779F7B111B1931192CB010C9428045C
S1130850DC01FC01672F71917723E1F7329704C023
S11308607C916D9370836291AE17BF07C8F30895AE
S1070870F894FFCF26
S1130874303030303000436F696E20436F756E74CE
S113088465720047726F75702D3200456E7465721F
S1130894206B657920746F2073746172743A002A32
S11308A4004B657920436F727265637400507265FE
S11308B4737320322C342C362C382C350057726F39
S11308C46E67206B6579005265656E746572204BA2
S11308D465793A00436F756E74696E672052533AB2
S11308E43120636F696E7320004E6F206F6620435E
S11308F46F696E733A0053746F7070656420636F2C
S1130904756E74696E6700436F756E74696E6720E3
S113091452533A3220636F696E732000436F756ECD
S113092474696E672052533A3520636F696E73207D
S113093400436F756E74696E672052533A313020E8
S1130944636F696E730053746F7070656420636FB2
S10D0954756E74696E6720202000A0
S9030000FC
